{"abi":[{"type":"function","name":"getPatientPredictions","inputs":[{"name":"_patientIdHash","type":"bytes32","internalType":"bytes32"}],"outputs":[{"name":"","type":"string[]","internalType":"string[]"}],"stateMutability":"view"},{"type":"function","name":"patientToPredictions","inputs":[{"name":"","type":"bytes32","internalType":"bytes32"},{"name":"","type":"uint256","internalType":"uint256"}],"outputs":[{"name":"","type":"string","internalType":"string"}],"stateMutability":"view"},{"type":"function","name":"predictions","inputs":[{"name":"","type":"string","internalType":"string"}],"outputs":[{"name":"predictionId","type":"string","internalType":"string"},{"name":"predictionHash","type":"bytes32","internalType":"bytes32"},{"name":"patientIdHash","type":"bytes32","internalType":"bytes32"},{"name":"timestamp","type":"uint256","internalType":"uint256"},{"name":"recordedBy","type":"address","internalType":"address"}],"stateMutability":"view"},{"type":"function","name":"recordAIPrediction","inputs":[{"name":"_predictionId","type":"string","internalType":"string"},{"name":"_predictionHash","type":"bytes32","internalType":"bytes32"},{"name":"_patientIdHash","type":"bytes32","internalType":"bytes32"}],"outputs":[],"stateMutability":"nonpayable"},{"type":"function","name":"recordDoctorValidation","inputs":[{"name":"_validationId","type":"string","internalType":"string"},{"name":"_predictionId","type":"string","internalType":"string"},{"name":"_doctorId","type":"string","internalType":"string"},{"name":"_decision","type":"string","internalType":"string"},{"name":"_signature","type":"string","internalType":"string"}],"outputs":[],"stateMutability":"nonpayable"},{"type":"function","name":"validations","inputs":[{"name":"","type":"string","internalType":"string"}],"outputs":[{"name":"validationId","type":"string","internalType":"string"},{"name":"predictionId","type":"string","internalType":"string"},{"name":"doctorId","type":"string","internalType":"string"},{"name":"decision","type":"string","internalType":"string"},{"name":"signature","type":"string","internalType":"string"},{"name":"timestamp","type":"uint256","internalType":"uint256"},{"name":"doctorAddress","type":"address","internalType":"address"}],"stateMutability":"view"},{"type":"event","name":"AIPredictionRecorded","inputs":[{"name":"predictionId","type":"string","indexed":true,"internalType":"string"},{"name":"patientIdHash","type":"bytes32","indexed":true,"internalType":"bytes32"},{"name":"predictionHash","type":"bytes32","indexed":false,"internalType":"bytes32"}],"anonymous":false},{"type":"event","name":"DoctorValidationRecorded","inputs":[{"name":"predictionId","type":"string","indexed":true,"internalType":"string"},{"name":"validationId","type":"string","indexed":false,"internalType":"string"},{"name":"decision","type":"string","indexed":false,"internalType":"string"}],"anonymous":false}],"bytecode":{"object":"0x6080604052348015600e575f5ffd5b506116e28061001c5f395ff3fe608060405234801561000f575f5ffd5b5060043610610060575f3560e01c80632281d93314610064578063231839d6146100945780632f2b82d1146100c45780637b4fd3e3146100fa5780637cf4b4031461012e57806391539cd01461014a575b5f5ffd5b61007e60048036038101906100799190610ba1565b610166565b60405161008b9190610c4f565b60405180910390f35b6100ae60048036038101906100a99190610c6f565b610217565b6040516100bb9190610d9d565b60405180910390f35b6100de60048036038101906100d99190610ee9565b6102fc565b6040516100f19796959493929190610f7e565b60405180910390f35b610114600480360381019061010f9190610ee9565b61060f565b60405161012595949392919061101d565b60405180910390f35b61014860048036038101906101439190611075565b6106fd565b005b610164600480360381019061015f91906110e1565b6108d3565b005b6002602052815f5260405f20818154811061017f575f80fd5b905f5260205f20015f9150915050805461019890611211565b80601f01602080910402602001604051908101604052809291908181526020018280546101c490611211565b801561020f5780601f106101e65761010080835404028352916020019161020f565b820191905f5260205f20905b8154815290600101906020018083116101f257829003601f168201915b505050505081565b606060025f8381526020019081526020015f20805480602002602001604051908101604052809291908181526020015f905b828210156102f1578382905f5260205f2001805461026690611211565b80601f016020809104026020016040519081016040528092919081815260200182805461029290611211565b80156102dd5780601f106102b4576101008083540402835291602001916102dd565b820191905f5260205f20905b8154815290600101906020018083116102c057829003601f168201915b505050505081526020019060010190610249565b505050509050919050565b6001818051602081018201805184825260208301602085012081835280955050505050505f91509050805f01805461033390611211565b80601f016020809104026020016040519081016040528092919081815260200182805461035f90611211565b80156103aa5780601f10610381576101008083540402835291602001916103aa565b820191905f5260205f20905b81548152906001019060200180831161038d57829003601f168201915b5050505050908060010180546103bf90611211565b80601f01602080910402602001604051908101604052809291908181526020018280546103eb90611211565b80156104365780601f1061040d57610100808354040283529160200191610436565b820191905f5260205f20905b81548152906001019060200180831161041957829003601f168201915b50505050509080600201805461044b90611211565b80601f016020809104026020016040519081016040528092919081815260200182805461047790611211565b80156104c25780601f10610499576101008083540402835291602001916104c2565b820191905f5260205f20905b8154815290600101906020018083116104a557829003601f168201915b5050505050908060030180546104d790611211565b80601f016020809104026020016040519081016040528092919081815260200182805461050390611211565b801561054e5780601f106105255761010080835404028352916020019161054e565b820191905f5260205f20905b81548152906001019060200180831161053157829003601f168201915b50505050509080600401805461056390611211565b80601f016020809104026020016040519081016040528092919081815260200182805461058f90611211565b80156105da5780601f106105b1576101008083540402835291602001916105da565b820191905f5260205f20905b8154815290600101906020018083116105bd57829003601f168201915b505050505090806005015490806006015f9054906101000a900473ffffffffffffffffffffffffffffffffffffffff16905087565b5f818051602081018201805184825260208301602085012081835280955050505050505f91509050805f01805461064590611211565b80601f016020809104026020016040519081016040528092919081815260200182805461067190611211565b80156106bc5780601f10610693576101008083540402835291602001916106bc565b820191905f5260205f20905b81548152906001019060200180831161069f57829003601f168201915b505050505090806001015490806002015490806003015490806004015f9054906101000a900473ffffffffffffffffffffffffffffffffffffffff16905085565b5f5f8460405161070d919061127b565b90815260200160405180910390205f01805461072890611211565b90501461076a576040517f08c379a0000000000000000000000000000000000000000000000000000000008152600401610761906112db565b60405180910390fd5b6040518060a001604052808481526020018381526020018281526020014281526020013373ffffffffffffffffffffffffffffffffffffffff168152505f846040516107b6919061127b565b90815260200160405180910390205f820151815f0190816107d79190611499565b506020820151816001015560408201518160020155606082015181600301556080820151816004015f6101000a81548173ffffffffffffffffffffffffffffffffffffffff021916908373ffffffffffffffffffffffffffffffffffffffff16021790555090505060025f8281526020019081526020015f2083908060018154018082558091505060019003905f5260205f20015f90919091909150908161087f9190611499565b50808360405161088f919061127b565b60405180910390207f7401035952ced0fdf81c85b3940f2326dc1f117ee528dbc501f0d86a6cc235bd846040516108c69190611568565b60405180910390a3505050565b5f5f856040516108e3919061127b565b90815260200160405180910390205f0180546108fe90611211565b905011610940576040517f08c379a0000000000000000000000000000000000000000000000000000000008152600401610937906115cb565b60405180910390fd5b5f600185604051610951919061127b565b90815260200160405180910390205f01805461096c90611211565b9050146109ae576040517f08c379a00000000000000000000000000000000000000000000000000000000081526004016109a590611659565b60405180910390fd5b6040518060e001604052808681526020018581526020018481526020018381526020018281526020014281526020013373ffffffffffffffffffffffffffffffffffffffff16815250600185604051610a07919061127b565b90815260200160405180910390205f820151815f019081610a289190611499565b506020820151816001019081610a3e9190611499565b506040820151816002019081610a549190611499565b506060820151816003019081610a6a9190611499565b506080820151816004019081610a809190611499565b5060a0820151816005015560c0820151816006015f6101000a81548173ffffffffffffffffffffffffffffffffffffffff021916908373ffffffffffffffffffffffffffffffffffffffff16021790555090505083604051610ae2919061127b565b60405180910390207f4efee1a209dc480ed796dfaa39381ad4cb2600a0fb74f3c3978da6b560614ebf8684604051610b1b929190611677565b60405180910390a25050505050565b5f604051905090565b5f5ffd5b5f5ffd5b5f819050919050565b610b4d81610b3b565b8114610b57575f5ffd5b50565b5f81359050610b6881610b44565b92915050565b5f819050919050565b610b8081610b6e565b8114610b8a575f5ffd5b50565b5f81359050610b9b81610b77565b92915050565b5f5f60408385031215610bb757610bb6610b33565b5b5f610bc485828601610b5a565b9250506020610bd585828601610b8d565b9150509250929050565b5f81519050919050565b5f82825260208201905092915050565b8281835e5f83830152505050565b5f601f19601f8301169050919050565b5f610c2182610bdf565b610c2b8185610be9565b9350610c3b818560208601610bf9565b610c4481610c07565b840191505092915050565b5f6020820190508181035f830152610c678184610c17565b905092915050565b5f60208284031215610c8457610c83610b33565b5b5f610c9184828501610b5a565b91505092915050565b5f81519050919050565b5f82825260208201905092915050565b5f819050602082019050919050565b5f82825260208201905092915050565b5f610cdd82610bdf565b610ce78185610cc3565b9350610cf7818560208601610bf9565b610d0081610c07565b840191505092915050565b5f610d168383610cd3565b905092915050565b5f602082019050919050565b5f610d3482610c9a565b610d3e8185610ca4565b935083602082028501610d5085610cb4565b805f5b85811015610d8b5784840389528151610d6c8582610d0b565b9450610d7783610d1e565b925060208a01995050600181019050610d53565b50829750879550505050505092915050565b5f6020820190508181035f830152610db58184610d2a565b905092915050565b5f5ffd5b5f5ffd5b7f4e487b71000000000000000000000000000000000000000000000000000000005f52604160045260245ffd5b610dfb82610c07565b810181811067ffffffffffffffff82111715610e1a57610e19610dc5565b5b80604052505050565b5f610e2c610b2a565b9050610e388282610df2565b919050565b5f67ffffffffffffffff821115610e5757610e56610dc5565b5b610e6082610c07565b9050602081019050919050565b828183375f83830152505050565b5f610e8d610e8884610e3d565b610e23565b905082815260208101848484011115610ea957610ea8610dc1565b5b610eb4848285610e6d565b509392505050565b5f82601f830112610ed057610ecf610dbd565b5b8135610ee0848260208601610e7b565b91505092915050565b5f60208284031215610efe57610efd610b33565b5b5f82013567ffffffffffffffff811115610f1b57610f1a610b37565b5b610f2784828501610ebc565b91505092915050565b610f3981610b6e565b82525050565b5f73ffffffffffffffffffffffffffffffffffffffff82169050919050565b5f610f6882610f3f565b9050919050565b610f7881610f5e565b82525050565b5f60e0820190508181035f830152610f96818a610c17565b90508181036020830152610faa8189610c17565b90508181036040830152610fbe8188610c17565b90508181036060830152610fd28187610c17565b90508181036080830152610fe68186610c17565b9050610ff560a0830185610f30565b61100260c0830184610f6f565b98975050505050505050565b61101781610b3b565b82525050565b5f60a0820190508181035f8301526110358188610c17565b9050611044602083018761100e565b611051604083018661100e565b61105e6060830185610f30565b61106b6080830184610f6f565b9695505050505050565b5f5f5f6060848603121561108c5761108b610b33565b5b5f84013567ffffffffffffffff8111156110a9576110a8610b37565b5b6110b586828701610ebc565b93505060206110c686828701610b5a565b92505060406110d786828701610b5a565b9150509250925092565b5f5f5f5f5f60a086880312156110fa576110f9610b33565b5b5f86013567ffffffffffffffff81111561111757611116610b37565b5b61112388828901610ebc565b955050602086013567ffffffffffffffff81111561114457611143610b37565b5b61115088828901610ebc565b945050604086013567ffffffffffffffff81111561117157611170610b37565b5b61117d88828901610ebc565b935050606086013567ffffffffffffffff81111561119e5761119d610b37565b5b6111aa88828901610ebc565b925050608086013567ffffffffffffffff8111156111cb576111ca610b37565b5b6111d788828901610ebc565b9150509295509295909350565b7f4e487b71000000000000000000000000000000000000000000000000000000005f52602260045260245ffd5b5f600282049050600182168061122857607f821691505b60208210810361123b5761123a6111e4565b5b50919050565b5f81905092915050565b5f61125582610bdf565b61125f8185611241565b935061126f818560208601610bf9565b80840191505092915050565b5f611286828461124b565b915081905092915050565b7f50726564696374696f6e20616c726561647920657869737473000000000000005f82015250565b5f6112c5601983610be9565b91506112d082611291565b602082019050919050565b5f6020820190508181035f8301526112f2816112b9565b9050919050565b5f819050815f5260205f209050919050565b5f6020601f8301049050919050565b5f82821b905092915050565b5f600883026113557fffffffffffffffffffffffffffffffffffffffffffffffffffffffffffffffff8261131a565b61135f868361131a565b95508019841693508086168417925050509392505050565b5f819050919050565b5f61139a61139561139084610b6e565b611377565b610b6e565b9050919050565b5f819050919050565b6113b383611380565b6113c76113bf826113a1565b848454611326565b825550505050565b5f5f905090565b6113de6113cf565b6113e98184846113aa565b505050565b5b8181101561140c576114015f826113d6565b6001810190506113ef565b5050565b601f82111561145157611422816112f9565b61142b8461130b565b8101602085101561143a578190505b61144e6114468561130b565b8301826113ee565b50505b505050565b5f82821c905092915050565b5f6114715f1984600802611456565b1980831691505092915050565b5f6114898383611462565b9150826002028217905092915050565b6114a282610bdf565b67ffffffffffffffff8111156114bb576114ba610dc5565b5b6114c58254611211565b6114d0828285611410565b5f60209050601f831160018114611501575f84156114ef578287015190505b6114f9858261147e565b865550611560565b601f19841661150f866112f9565b5f5b8281101561153657848901518255600182019150602085019450602081019050611511565b86831015611553578489015161154f601f891682611462565b8355505b6001600288020188555050505b505050505050565b5f60208201905061157b5f83018461100e565b92915050565b7f50726564696374696f6e20646f6573206e6f74206578697374000000000000005f82015250565b5f6115b5601983610be9565b91506115c082611581565b602082019050919050565b5f6020820190508181035f8301526115e2816115a9565b9050919050565b7f56616c69646174696f6e20616c72656164792065786973747320666f722074685f8201527f69732070726564696374696f6e00000000000000000000000000000000000000602082015250565b5f611643602d83610be9565b915061164e826115e9565b604082019050919050565b5f6020820190508181035f83015261167081611637565b9050919050565b5f6040820190508181035f83015261168f8185610c17565b905081810360208301526116a38184610c17565b9050939250505056fea2646970667358221220786de77aa47436f816a5c1d5b61edab9d6001470b0239f519fa0e4890e2a4a1264736f6c634300081e0033","linkReferences":{}},"methodIdentifiers":{"getPatientPredictions(bytes32)":"231839d6","patientToPredictions(bytes32,uint256)":"2281d933","predictions(string)":"7b4fd3e3","recordAIPrediction(string,bytes32,bytes32)":"7cf4b403","recordDoctorValidation(string,string,string,string,string)":"91539cd0","validations(string)":"2f2b82d1"},"id":22}